{
  "transactions": [
    {
      "hash": "0x02dd6b83377de88ea2ff9c86ba42abb7879f09bc04a7c7e7ba2b86f46b43d59d",
      "transactionType": "CREATE",
      "contractName": "L2ENSRegistry",
      "contractAddress": "0x5833395c4bdf4bb50ac7f4868fe922ae091d1129",
      "function": null,
      "arguments": null,
      "transaction": {
        "type": "0x02",
        "from": "0x84c970bfcd59a0e98ec6f13cbdf24aa1a741f033",
        "gas": "0xcddee",
        "value": "0x0",
        "data": "0x608060405234801561001057600080fd5b5060008080526020527fad3228b676f7d3cd4284a5443f17f1962b36e491b30a40b2405849e597ba5fb580546001600160a01b03191633179055610a5a806100596000396000f3fe608060405234801561001057600080fd5b50600436106100ea5760003560e01c80635b0fc9c31161008c578063a22cb46511610066578063a22cb4651461022c578063cf4088231461023f578063e985e9c514610252578063f79fe5381461029e57600080fd5b80635b0fc9c3146101f35780635ef2c7f014610206578063621a9c021461021957600080fd5b806314ab9038116100c857806314ab90381461016c57806316a25cbd146101815780631896f70a146101ce57806334fd0150146101e157600080fd5b80630178b8bf146100ef57806302571be31461013857806306ab59231461014b575b600080fd5b61011b6100fd366004610849565b6000908152602081905260409020600101546001600160a01b031690565b6040516001600160a01b0390911681526020015b60405180910390f35b61011b610146366004610849565b6102c9565b61015e61015936600461087e565b6102f7565b60405190815260200161012f565b61017f61017a3660046108cb565b6103c7565b005b6101b561018f366004610849565b600090815260208190526040902060010154600160a01b900467ffffffffffffffff1690565b60405167ffffffffffffffff909116815260200161012f565b61017f6101dc3660046108f7565b61049a565b61015e6101ef366004610849565b5490565b61017f6102013660046108f7565b61055f565b61017f61021436600461091a565b610601565b61015e610227366004610849565b610623565b61017f61023a366004610971565b61066d565b61017f61024d3660046109ad565b6106d9565b61028e6102603660046109fa565b6001600160a01b03918216600090815260016020908152604080832093909416825291909152205460ff1690565b604051901515815260200161012f565b61028e6102ac366004610849565b6000908152602081905260409020546001600160a01b0316151590565b6000818152602081905260408120546001600160a01b03163081036102f15750600092915050565b92915050565b60008381526020819052604081205484906001600160a01b03163381148061034257506001600160a01b038116600090815260016020908152604080832033845290915290205460ff165b61034b57600080fd5b6040805160208082018990528183018890528251808303840181526060909201909252805191012061037d81866106f4565b6040516001600160a01b0386168152869088907fce0457fe73731f824cc272376169235128c118b49d344817417c6d108d155e829060200160405180910390a39695505050505050565b60008281526020819052604090205482906001600160a01b03163381148061041257506001600160a01b038116600090815260016020908152604080832033845290915290205460ff165b61041b57600080fd5b60405167ffffffffffffffff8416815284907f1d4f9bbfc9cab89d66e1a1562f2233ccbf1308cb4f63de2ead5787adddb8fa689060200160405180910390a25050600091825260208290526040909120600101805467ffffffffffffffff909216600160a01b0267ffffffffffffffff60a01b19909216919091179055565b60008281526020819052604090205482906001600160a01b0316338114806104e557506001600160a01b038116600090815260016020908152604080832033845290915290205460ff165b6104ee57600080fd5b6040516001600160a01b038416815284907f335721b01866dc23fbee8b6b2c7b1e14d6f05c28cd35a2c934239f94095602a09060200160405180910390a2505060009182526020829052604090912060010180546001600160a01b0319166001600160a01b03909216919091179055565b60008281526020819052604090205482906001600160a01b0316338114806105aa57506001600160a01b038116600090815260016020908152604080832033845290915290205460ff165b6105b357600080fd5b6105bd84846106f4565b6040516001600160a01b038416815284907fd4735d920b0f87494915f556dd9b54c8f309026070caea5c737245152564d2669060200160405180910390a250505050565b600061060e8686866102f7565b905061061b818484610722565b505050505050565b6000818152602081815260408083209051818152909182917ffd6ff40b02c930b08bee5adeea4eca57778395e6d680f4ed4dfc9d308dce1f81910160405180910390a19392505050565b3360008181526001602090815260408083206001600160a01b03871680855290835292819020805460ff191686151590811790915590519081529192917f17307eab39ab6107e8899845ad3d59bd9653f200f220920489ca2b5937696c31910160405180910390a35050565b6106e3848461055f565b6106ee848383610722565b50505050565b60009182526020829052604090912080546001600160a01b0319166001600160a01b03909216919091179055565b6000838152602081905260409020600101546001600160a01b038381169116146107a8576000838152602081815260409182902060010180546001600160a01b0319166001600160a01b038616908117909155915191825284917f335721b01866dc23fbee8b6b2c7b1e14d6f05c28cd35a2c934239f94095602a0910160405180910390a25b60008381526020819052604090206001015467ffffffffffffffff828116600160a01b90920416146108445760008381526020818152604091829020600101805467ffffffffffffffff60a01b1916600160a01b67ffffffffffffffff861690810291909117909155915191825284917f1d4f9bbfc9cab89d66e1a1562f2233ccbf1308cb4f63de2ead5787adddb8fa68910160405180910390a25b505050565b60006020828403121561085b57600080fd5b5035919050565b80356001600160a01b038116811461087957600080fd5b919050565b60008060006060848603121561089357600080fd5b83359250602084013591506108aa60408501610862565b90509250925092565b803567ffffffffffffffff8116811461087957600080fd5b600080604083850312156108de57600080fd5b823591506108ee602084016108b3565b90509250929050565b6000806040838503121561090a57600080fd5b823591506108ee60208401610862565b600080600080600060a0868803121561093257600080fd5b853594506020860135935061094960408701610862565b925061095760608701610862565b9150610965608087016108b3565b90509295509295909350565b6000806040838503121561098457600080fd5b61098d83610862565b9150602083013580151581146109a257600080fd5b809150509250929050565b600080600080608085870312156109c357600080fd5b843593506109d360208601610862565b92506109e160408601610862565b91506109ef606086016108b3565b905092959194509250565b60008060408385031215610a0d57600080fd5b610a1683610862565b91506108ee6020840161086256fea264697066735822122023663e5269a62f5d86d75df4423690e9c0696394e33f7fd9e9deb2f2bae29a3464736f6c63430008100033",
        "nonce": "0x0",
        "accessList": []
      }
    },
    {
      "hash": "0xe62f2420c249acae0cda0fd622f5f0a32e966b1c31b06e347ef40930c9c14621",
      "transactionType": "CALL",
      "contractName": "L2ENSRegistry",
      "contractAddress": "0x5833395c4bdf4bb50ac7f4868fe922ae091d1129",
      "function": "setSubnodeRecord(bytes32,bytes32,address,address,uint64)",
      "arguments": [
        "0000000000000000000000000000000000000000000000000000000000000000",
        "4f5b812789fc606be1b3b16908db13fc7a9adf7ca72641f84d75b47069d3d7f0",
        "84c970bfcd59a0e98ec6f13cbdf24aa1a741f033",
        "00000000000c2e074ec69a0dfb2997ba6c7d2e1e",
        "40"
      ],
      "transaction": {
        "type": "0x02",
        "from": "0x84c970bfcd59a0e98ec6f13cbdf24aa1a741f033",
        "to": "0x5833395c4bdf4bb50ac7f4868fe922ae091d1129",
        "gas": "0x1affd",
        "value": "0x0",
        "data": "0x5ef2c7f000000000000000000000000000000000000000000000000000000000000000004f5b812789fc606be1b3b16908db13fc7a9adf7ca72641f84d75b47069d3d7f000000000000000000000000084c970bfcd59a0e98ec6f13cbdf24aa1a741f03300000000000000000000000000000000000c2e074ec69a0dfb2997ba6c7d2e1e0000000000000000000000000000000000000000000000000000000000000040",
        "nonce": "0x1",
        "accessList": []
      }
    },
    {
      "hash": "0x02a7d231083f0ac18cb3c42882d9bceca7c4df9c016e5c51768bfa43a30c5cf7",
      "transactionType": "CALL",
      "contractName": "L2ENSRegistry",
      "contractAddress": "0x5833395c4bdf4bb50ac7f4868fe922ae091d1129",
      "function": "setSubnodeRecord(bytes32,bytes32,address,address,uint64)",
      "arguments": [
        "93cdeb708b7545dc668eb9280176169d1c33cfd8ed6f04690a0bcc88a93fc4ae",
        "a1bb72f18c84f1ce3fb2d1779e6289d899f89d5cc92a3f9432e20caa49c5fd21",
        "84c970bfcd59a0e98ec6f13cbdf24aa1a741f033",
        "00000000000c2e074ec69a0dfb2997ba6c7d2e1e",
        "40"
      ],
      "transaction": {
        "type": "0x02",
        "from": "0x84c970bfcd59a0e98ec6f13cbdf24aa1a741f033",
        "to": "0x5833395c4bdf4bb50ac7f4868fe922ae091d1129",
        "gas": "0x1b22f",
        "value": "0x0",
        "data": "0x5ef2c7f093cdeb708b7545dc668eb9280176169d1c33cfd8ed6f04690a0bcc88a93fc4aea1bb72f18c84f1ce3fb2d1779e6289d899f89d5cc92a3f9432e20caa49c5fd2100000000000000000000000084c970bfcd59a0e98ec6f13cbdf24aa1a741f03300000000000000000000000000000000000c2e074ec69a0dfb2997ba6c7d2e1e0000000000000000000000000000000000000000000000000000000000000040",
        "nonce": "0x2",
        "accessList": []
      }
    },
    {
      "hash": "0xbc8ffa6c0374f8e4215f10007a7b746ac1fbdf5ef312d55583eb611e747e0f4f",
      "transactionType": "CALL",
      "contractName": "L2ENSRegistry",
      "contractAddress": "0x5833395c4bdf4bb50ac7f4868fe922ae091d1129",
      "function": "setSubnodeRecord(bytes32,bytes32,address,address,uint64)",
      "arguments": [
        "6e4409edbffcd311c18c7dbfadfc428daf0edd143693491dd2b4782bc494dc61",
        "0f022f656b1569b8cb1fd5ba85f3d6657794e99d4236da8a3303d3872c606ffd",
        "84c970bfcd59a0e98ec6f13cbdf24aa1a741f033",
        "00000000000c2e074ec69a0dfb2997ba6c7d2e1e",
        "40"
      ],
      "transaction": {
        "type": "0x02",
        "from": "0x84c970bfcd59a0e98ec6f13cbdf24aa1a741f033",
        "to": "0x5833395c4bdf4bb50ac7f4868fe922ae091d1129",
        "gas": "0x1b22f",
        "value": "0x0",
        "data": "0x5ef2c7f06e4409edbffcd311c18c7dbfadfc428daf0edd143693491dd2b4782bc494dc610f022f656b1569b8cb1fd5ba85f3d6657794e99d4236da8a3303d3872c606ffd00000000000000000000000084c970bfcd59a0e98ec6f13cbdf24aa1a741f03300000000000000000000000000000000000c2e074ec69a0dfb2997ba6c7d2e1e0000000000000000000000000000000000000000000000000000000000000040",
        "nonce": "0x3",
        "accessList": []
      }
    }
  ],
  "receipts": [],
  "libraries": [],
  "pending": [
    "0x02dd6b83377de88ea2ff9c86ba42abb7879f09bc04a7c7e7ba2b86f46b43d59d",
    "0xe62f2420c249acae0cda0fd622f5f0a32e966b1c31b06e347ef40930c9c14621",
    "0x02a7d231083f0ac18cb3c42882d9bceca7c4df9c016e5c51768bfa43a30c5cf7",
    "0xbc8ffa6c0374f8e4215f10007a7b746ac1fbdf5ef312d55583eb611e747e0f4f"
  ],
  "path": "C:/development/golang/src/github.com/0xpaulio/eth-sf-ens-rr/contracts\\broadcast\\DeployL2Contracts.s.sol\\5\\run-latest.json",
  "returns": {},
  "timestamp": 1667696797
}